:100000000C9475100C9400000C9400000C940000EB
:100010000C9400000C9400000C9400000C94000060
:100020000C9400000C9400000C9400000C94000050
:100030000C9400000C9400000C9400000C94000040
:100040000C9400000C9400000C9400000C94000030
:040050000C9400000C
:1020EA00BFE5BDBFB8E0BEBF0E94D110CEDF3BDF67
:0620FA0073DFFECFFFCFF3
:102094002F923F924F925F926F920DE911E2302E90
:1020A400412E22247BDCB0E83B2EB5E24B2EB0E07F
:1020B4005B2E6B2EB0E12B2E9EDCB2E04B2EBDE9E5
:1020C4002B2EB0E03B2E79DE25E01FE002EF0A95CF
:1020D400F1F71A95E1F72A95D1F76F905F904F9039
:0620E4003F902F900895CB
:1019A0002F923F924F920EC0232C342CB1DA14C0E8
:1019B000232C342C66DA10C0232C342C72D80CC0A3
:1019C00001E00AC0B0E02B1679F3B1E02B1681F3E9
:1019D000B2E02B1689F3F4CF4F903F902F900895EB
:0019E00007
:100F1000CF93DF93CDB7DEB72297CDBFDEBF21964B
:100F20002F923F9281010883198313C0B1B1BE7F14
:100F3000B1B9B1B1BD7FB1B9B0E2B0B9D5DC26C0AD
:100F4000FFDC222444DB222436DDF7DC1FC004E072
:100F50001EC048815981FA0105911591259135915D
:100F6000303029F4213019F4163809F4003AF1F23E
:100F7000FA010591159125913591303029F42030F1
:100F800019F4103009F40030D9F2E1CF00E03F90BD
:0E0F90002F902196CDBFDEBFDF91CF91089547
:100940002F9240916000509161006091620070911F
:100950006300B4EAB6BFB6B7B7FD25C0009160002A
:10096000109161002091620030916300B02FB12B93
:10097000B22BB32BB9F0B42FB52BB62BB72B49F450
:10098000B5E02B2EE091D300F091D400099501E061
:1009900010C08A019B010150104020403040A80146
:1009A000B90100C0D8CF10DE0830B0E009F0B1E0E6
:0609B0000B2F2F900895AB
:1005AA00BBB1B5FD01C0FCCFBBB1B6FF03C0BBB147
:0805BA00B064BBB92CB8089530
:1005CE002F92409160005091610060916200709195
:1005DE00630023B8B4E8B6BFB6B7B7FD24C0009128
:1005EE006000109161002091620030916300B02F85
:1005FE00B12BB22BB32BB1F0B42FB52BB62BB72B2F
:10060E0041F4B4E02B2EE091D300F091D400099583
:10061E000AC08A019B010150104020403040A801C1
:0A062E00B90100C0D9CF2F90089544
:0A02C40020FABBB3B7F9BBBB0895E5
:0A02BA0020FABBB3B6F9BBBB0895F0
:0A02D80020FABBB3B5F9BBBB0895D3
:0A02CE0020FAB8B3B7F9B8BB0895E1
:0A02B00020FAB8B3B6F9B8BB089500
:0A02920020FAB8B3B5F9B8BB08951F
:0A02880020FAB2B3B4F9B2BB089536
:0A02A60020FAB2B3B2F9B2BB08951A
:0A029C0020FAB2B3B0F9B2BB089526
:0A031E0020FAB2B3B1F9B2BB0895A2
:0A03140020FAB5B3B0F9B5BB0895A7
:0A03320020FAB5B3B1F9B5BB089588
:0A03280020FABBB3B0F9BBBB089587
:0A030A0020FABBB3B1F9BBBB0895A4
:0A02EC0020FABBB3B3F9BBBB0895C1
:0A02E20020FAB8B3B7F9B8BB0895CD
:0A03000020FAB8B3B6F9B8BB0895AF
:0A02F60020FAB8B3B5F9B8BB0895BB
:0A00EA0020FAB2B3B5F9B2BB0895D5
:0A00CC0020FAB2B3B3F9B2BB0895F5
:0A00C20020FAB2B3B0F9B2BB089502
:0A00D60020FAB2B3B1F9B2BB0895ED
:0A00E00020FAB5B3B0F9B5BB0895DE
:0A00B80020FAB5B3B1F9B5BB089505
:0A00900020FABBB3B4F9BBBB08951E
:0A00860020FAB8B3B0F9B8BB089532
:0A009A0020FAB8B3B4F9B8BB08951A
:0A00AE0020FAB8B3B7F9B8BB089503
:0A00A40020FAB8B3B6F9B8BB08950E
:0A02600020FAB8B3B5F9B8BB089551
:0A02560020FAB8B3B3F9B8BB08955D
:0A026A0020FAB8B3B2F9B8BB08954A
:0A027E0020FAB2B3B2F9B2BB089542
:0A02740020FAB2B3B3F9B2BB08954B
:0A024C0020FAB5B3B0F9B5BB089570
:0A01AA0020FAB5B3B1F9B5BB089512
:0605C80001B1087F089557
:1009B6002F924091600050916100609162007091A9
:1009C6006300B4E8B6BF20FAB6B7B6F9B6BFB6B795
:1009D600B7FD25C000916000109161002091620072
:1009E60030916300B02FB12BB22BB32BB9F0B42FDB
:1009F600B52BB62BB72B49F4B3E02B2EE091D300E1
:100A0600F091D400099501E00BC08A019B010150C9
:100A1600104020403040A801B90100C0D8CF03B132
:040A26002F90089570
:06093A00B4E9B6BF089508
:0A08E800B0E3B1B9B4E0B6BF089563
:100E8200CF93DF93CDB7DEB72297CDBFDEBF2196DA
:100E92002F923F9281010883198313C0B1B1BE7FA3
:100EA200B1B9B1B1BD7FB1B9B0E2B0B91CDD26C0F4
:100EB20046DD22248BDB22247DDD3EDD1FC004E0E3
:100EC2001EC048815981FA010591159125913591EC
:100ED200303029F4213019F4163809F4003AF1F2CD
:100EE200FA010591159125913591303029F4203080
:100EF20019F4103009F40030D9F2E1CF00E03F904C
:0E0F02002F902196CDBFDEBFDF91CF910895D5
:040AA20004E00895CF
:1019FA002F923F924F925F926F921AC0232C342CEF
:101A0A00452C562CCFD821C0232C342C452C562CAF
:101A1A004BD91BC0232C342C452C562C3FD815C02F
:101A2A00232C342C452C562C3BD80FC001E00DC07A
:101A3A00B0E02B1619F3B1E02B1631F3B2E02B16F6
:101A4A0049F3B0E12B1661F3F1CF6F905F904F909D
:061A5A003F902F9008955B
:100BAE002BC0B7E6B9B9B0E0B0BD9CDE73C0B3E3FD
:100BBE00B9B9B0E0B0BD96DE6DC0B9E1B9B9B0E07B
:100BCE00B0BD90DE67C0BCE0B9B9B0E0B0BD8ADEA2
:100BDE0061C0BBB1B260BBB9B0E1B9B9B0E0B0BDF4
:100BEE0081DE58C0BBB1B260BBB9B8E0B9B9B0E0F4
:100BFE00B0BD78DE4FC04EC0B0E05B1641F4B0E041
:100C0E004B1629F4B2E13B1611F4B0EC2B1649F257
:100C1E00B0E05B1641F4B0E04B1629F4B5E23B169A
:100C2E0011F4B0E82B1609F4C2CFB0E05B1641F414
:100C3E00B0E04B1629F4BBE43B1611F4B0E02B16D2
:100C4E0009F4BBCFB0E05B1641F4B0E04B1629F4CB
:100C5E00B6E93B1611F4B0E02B1609F4B4CFB0E0B0
:100C6E005B1641F4B0E04B1629F4B1EE3B1611F4CD
:100C7E00B0E02B1609F4ADCFB0E05B1641F4B1E055
:100C8E004B1629F4B2EC3B1611F4B0E02B1609F416
:100C9E00A9CFB1CFB5EDB093D500B2E0B093D600E9
:040CAE0000E00895C5
:1008F200B5EDB093CF00B2E0B093D000B2E7B093C1
:10090200C500B4E0B093C600BEE5B093D100B4E038
:10091200B093D200B9E5B093C700B4E0B093C80079
:10092200B1B3BE7FB1BBB1B3B260B1BB0AB10861B2
:080932000AB9B6E8B0BD089552
:100CB2002BC0B7E6B9B9B0E0B0BD1ADE73C0B3E37A
:100CC200B9B9B0E0B0BD14DE6DC0B9E1B9B9B0E0F8
:100CD200B0BD0EDE67C0BCE0B9B9B0E0B0BD08DEA1
:100CE20061C0BBB1B260BBB9B0E1B9B9B0E0B0BDEF
:100CF200FFDD58C0BBB1B260BBB9B8E0B9B9B0E072
:100D0200B0BDF6DD4FC04EC0B0E05B1641F4B0E0BE
:100D12004B1629F4B2E13B1611F4B0EC2B1649F252
:100D2200B0E05B1641F4B0E04B1629F4B5E23B1695
:100D320011F4B0E82B1609F4C2CFB0E05B1641F40F
:100D4200B0E04B1629F4BBE43B1611F4B0E02B16CD
:100D520009F4BBCFB0E05B1641F4B0E04B1629F4C6
:100D6200B6E93B1611F4B0E02B1609F4B4CFB0E0AB
:100D72005B1641F4B0E04B1629F4B1EE3B1611F4C8
:100D8200B0E02B1609F4ADCFB0E05B1641F4B1E050
:100D92004B1629F4B2EC3B1611F4B0E02B1609F411
:100DA200A9CFB1CFB5EDB093D500B2E0B093D600E4
:040DB20000E00895C0
:040AA60006E00895C9
:100AAA002BC0B7E6B9B9B0E0B0BD1EDF73C0B3E37F
:100ABA00B9B9B0E0B0BD18DF6DC0B9E1B9B9B0E0FD
:100ACA00B0BD12DF67C0BCE0B9B9B0E0B0BD0CDFA1
:100ADA0061C0BBB1B260BBB9B0E1B9B9B0E0B0BDF9
:100AEA0003DF58C0BBB1B260BBB9B8E0B9B9B0E076
:100AFA00B0BDFADE4FC04EC0B0E05B1641F4B0E0C4
:100B0A004B1629F4B2E13B1611F4B0EC2B1649F25C
:100B1A00B0E05B1641F4B0E04B1629F4B5E23B169F
:100B2A0011F4B0E82B1609F4C2CFB0E05B1641F419
:100B3A00B0E04B1629F4BBE43B1611F4B0E02B16D7
:100B4A0009F4BBCFB0E05B1641F4B0E04B1629F4D0
:100B5A00B6E93B1611F4B0E02B1609F4B4CFB0E0B5
:100B6A005B1641F4B0E04B1629F4B1EE3B1611F4D2
:100B7A00B0E02B1609F4ADCFB0E05B1641F4B1E05A
:100B8A004B1629F4B2EC3B1611F4B0E02B1609F41B
:100B9A00A9CFB1CFB5EDB093D500B2E0B093D600EE
:040BAA0000E00895CA
:101DBE00CF93DF93CDB7DEB72297CDBFDEBF21968F
:101DCE002F923F928101BDE0B883BAE0B98341C042
:101DDE001801DBDA4AC09801F9010081002389F06D
:101DEE003F932F934F923F922F921901CEDA2F905D
:101DFE003F904F902F913F9189010F5F1F4F980198
:101E0E00EBCF33C09801F9010081002389F03F9395
:101E1E002F934F923F922F921901B7DA2F903F9046
:101E2E004F902F913F9189010F5F1F4F9801EBCF7C
:101E3E008E014F923F922F921801A7DA8E010F5FFB
:101E4E001F4F1801A2DA2F903F904F900EC006E060
:101E5E000DC0B0E04B1609F4BBCFB1E04B1609F440
:101E6E00BACFB2E04B1671F2F2CF00E03F902F9056
:0C1E7E002196CDBFDEBFDF91CF9108950B
:101398002F923F92F1010081202EE091D500F0912B
:0C13A800D600099500E03F902F900895BA
:101F70002F923F924F925F926F92B3E66B2EB5E92C
:101F80004B2EB1E25B2EB5E62B2EB1E23B2E28DDC7
:101F900025E11BE40FEB0A95F1F71A95E1F72A9575
:101FA000D1F70000CCDC25E11BE40FEB0A95F1F73B
:101FB0001A95E1F72A95D1F70000B2E04B2EB6E76B
:101FC0002B2EB0E03B2EFBDEB2E04B2EBCE92B2EDD
:101FD000B0E03B2EF4DE6F905F904F903F902F90DB
:021FE000089562
:1019E0006092D7003F922F9212015DDB2F903F90C3
:0A19F000A9DBB0E0B093DA0008951F
:1010A600F101059115910093C9001093CA00F10151
:1010B6003296059115910093CD001093CE00F10163
:1010C6003496059115910093CB001093CC00F10155
:1010D6003696059115910093D8001093D90008957E
:0010E6000A
:0211440008950C
:10193E00CF93DF93CDB7DEB72297CDBFDEBF219613
:10194E002F923F924F925F926F927F92FE01B0E87C
:10195E00B0838E01F8013196BDE5B083D1DB8E01E7
:10196E007724B2E05B2EB0E06B2E302E412E20900D
:10197E00D700E2DBB0E0B093DA007F906F905F901B
:10198E004F903F902F902196CDBFDEBFDF91CF912C
:02199E000895AA
:10110E00CF93DF93CDB7DEB72297CDBFDEBF21964B
:10111E00B0E0B883B983E091C900F091CA00099597
:10112E002881398110E0022B132B2196CDBFDEBF13
:06113E00DF91CF9108953E
:0408E4000CB10895B6
:0A08BC000BB0002707FC0395089518
:0A08B2000BB0002706FC0395089523
:0A08C60009B2002707FC039508950E
:0A08DA0009B2002706FC03950895FB
:0A08D00009B2002705FC0395089506
:0A0A2A0006B2002707FC03950895AB
:0A0A840006B2002706FC0395089552
:0A0A7A0006B2002705FC039508955D
:0A0A700000B2002704FC039508956E
:0A0A980000B2002702FC0395089548
:0A0A8E0000B2002700FC0395089554
:0A0A660000B2002701FC039508957B
:0A0A520003B2002700FC039508958D
:0A0A5C0003B2002701FC0395089582
:0A0A340009B2002700FC03950895A5
:0A0A3E0009B2002701FC039508959A
:0A0A480009B2002703FC039508958E
:0A067E0006B2002707FC039508955B
:0A06B00006B2002706FC039508952A
:0A06BA0006B2002705FC0395089521
:0A06920000B2002705FC039508954F
:0A06880000B2002703FC039508955B
:0A069C0000B2002700FC039508954A
:0A06A60000B2002701FC039508953F
:0A064C0003B2002700FC0395089597
:0A06420003B2002701FC03950895A0
:0A06380009B2002704FC03950895A1
:0A06560006B2002700FC039508958A
:0A06740006B2002704FC0395089568
:0A066A0006B2002707FC039508956F
:0A06600006B2002706FC039508957A
:0A08800006B2002705FC0395089559
:0A08760006B2002703FC0395089565
:0A086C0006B2002702FC0395089570
:0A088A0000B2002702FC0395089558
:0A08A80000B2002703FC0395089539
:0A089E0003B2002700FC0395089543
:0A08940003B2002701FC039508954C
:10114600CF93DF93CDB7DEB72497CDBFDEBF219611
:101156002F92B0E0BA83BB8338824982022D000FFA
:101166007F926F925F92202EE091CB00F091CC009F
:1011760009955F906F907F90252D362D052D162DA4
:1011860001501040502E612EB22FB32BE1F0E881B2
:10119600F98100817F926F925F924F923F922F92D8
:1011A600202EE091CB00F091CC0009952F903F9036
:1011B6004F905F906F907F90088119810F5F1F4F4E
:1011C60008831983D9CFB0E07B1689F47F926F929A
:1011D6005F924F923F922F92E091CD00F091CE0018
:1011E60009952F903F904F905F906F907F90B1E060
:1011F6007B1689F47F926F925F924F923F922F9265
:10120600E091C900F091CA0009952F903F904F9048
:101216005F906F907F900A811B812F902396CDBFA0
:08122600DEBFDF91CF910895B6
:101FE2002F923F924F925F926F92B5E22B2EB8E6FC
:101FF2003B2E4ADF00931701BBED5B2EB0E06B2E48
:10200200B8E13B2EB1E04B2E202E29DDBDED3B2E5B
:10201200B0E04B2E209018013BDCB1E04B2EB4E631
:102022002B2EB0E03B2ECADEB2E04B2EBDED2B2EA6
:10203200B0E03B2EC3DEBDED4B2EB0E05B2E209018
:10204200DB003090DC00E0DBB1E04B2EB5EB2B2E59
:10205200B0E03B2EB3DEB2E04B2EBDED2B2EB0E056
:102062003B2EACDEB2E04B2EB4EC2B2EB0E03B2E7E
:10207200A5DE25E11BE40FEB0A95F1F71A95E1F7CE
:102082002A95D1F700006F905F904F903F902F906C
:022092000895AF
:101E8A00CF93DF93CDB7DEB72397CDBFDEBF2196C1
:101E9A002F923F924F925F926F927F92B0E63B16DB
:101EAA0011F4BCE92B1699F0B8E63B1611F4B5E229
:101EBA002B1669F0B0E73B1611F4BFED2B1639F07B
:101ECA00B8E73B1611F4B6E62B1609F003C0B1E0E9
:101EDA00B8831EC0B0E43B1611F4BAE12B1699F090
:101EEA00B8E43B1611F4B3EA2B1669F0B0E53B16D9
:101EFA0011F4B9E52B1639F0B8E53B1611F4B0EE3A
:101F0A002B1609F003C0B2E0B88302C00FEF1AC063
:101F1A00FE013196032D10E000838E010F5F1F4FE3
:101F2A00F80131962082EED88E010F5F1F4F772479
:101F3A00B2E05B2EB0E06B2E302E412E2090D700FF
:101F4A00FDD808817F906F905F904F903F902F90BF
:0C1F5A002296CDBFDEBFDF91CF9108952D
:101A6000CF93DF93CDB7DEB7EB97CDBFDEBF219627
:101A70007F920091DA00003091F46F925F924F9262
:101A80003F922F92B1EF2B2EB0E03B2E90DA2F90A9
:101A90003F904F905F906F90B1E0B093DA0040E0DC
:101AA00050E060E070E00091F1001091F2002091B0
:101AB000F3003091F400401751076207730750F4A8
:101AC0009EDE8A019B010F5F1F4F2F4F3F4FA801E2
:101AD000B901E9CF9E012E5F3F4F8E016F925F9259
:101AE0004F923F922F92522E632E302E412E9FDB2B
:101AF0002F903F904F905F906F900E830F3F11F4A7
:101B00000E8156C1088119810050104820E0322F03
:101B10000E9433040F83188729873A870091F500C4
:101B20001091F60020E0322F0E9433044F923F9232
:101B30002F924F81588569857A850E946E034F8167
:101B4000588569857A850E946E03409111015091F4
:101B5000120160911301709114010E946E03409173
:101B6000090150910A0160910B0170910C010E94D2
:101B70001F040B871C872D873E870091150110914C
:101B800016014091FB005091FC0009DA20E0322F51
:101B90000E9433040BA71CA72DA73EA70091F700B6
:101BA0001091F80020E0322F0E9433044F815885B5
:101BB00069857A850E946E034F81588569857A858B
:101BC0000E946E0340911101509112016091130126
:101BD000709114010E946E034BA55CA56DA57EA5B6
:101BE0000E941F040F87188B298B3A8B0091F900F4
:101BF0001091FA0020E0322F0E9433044F81588563
:101C000069857A850E946E034F81588569857A853A
:101C10000E946E03409111015091120160911301D5
:101C2000709114010E946E0340910D0150910E01BC
:101C300060910F01709110010E941F042F903F903E
:101C40004F90A801B901FE0173960B851C852D8567
:101C50003E8501931193219331938E010D5E1F4FA9
:101C6000F80134960F85188929893A8901931193CF
:101C7000219331938E010D5E1F4FF80138964193E9
:101C80005193619371939E01215E3F4F8E010D5ED2
:101C90001F4F6F925F924F923F922F92390128010E
:101CA000BDEF2B2EB0E03B2E85DB2F903F904F9069
:101CB0005F906F900881198120E017FD2FEF322F80
:101CC0007AD84F923F922F9240E050E06FE27BE350
:101CD0000E946E0340E050E064E372EC0E941F0437
:101CE0002F903F904F906AD8E32DF42D00838E0102
:101CF000015E1F4F09AF1AAFF8013896019111919B
:101D0000219131910DAB1EAB2FAB38AF0A811B81F6
:101D10002C813D810E9433044DA95EA96FA978AD45
:101D20004F923F922F920E941F042F903F904F900E
:101D30000FA718AB29AB3AAB09AD1AADF801349631
:101D400001911191219131916F925F924F923F9247
:101D50002F924FA558A969A97AA90E9429042F900A
:101D60003F904F905F906F90E9ADFAAD41915191E6
:101D7000619171914F923F922F920E941F042F9078
:101D80003F904F906F925F924F923F922F9240E020
:101D900050E068EC72E40E9429042F903F904F902D
:101DA0005F906F900BD8E52DF62D019311930E8166
:0E1DB0007F90EA96CDBFDEBFDF91CF91089500
:100FAE00CF93DF93CDB7DEB72897CDBFDEBF2196A7
:100FBE008E013F922F92180194DB2F903F9060E0AC
:100FCE006430B8F481010C5F1F4F462F50E0440F80
:100FDE00551F9A01200F311F8E01FA01E00FF11FEC
:100FEE0001911191F90101931193062F0F5F602F5B
:100FFE00E7CFF1013C96B8ECB193BFEAB193B0E004
:10100E00B193B1938101045F1F4FF8013496B0E89C
:10101E00B193B8E3B193B1E0B193B0E0B193810174
:10102E00045F1F4FF8013896B8E2B193BAE9B19355
:10103E00B1E0B193B0E0B193F1017896B0E0B19325
:10104E00B193B0E6B193BAE4B193F1017C96B0E0FE
:10105E00B193B193B8E3B193BBE4B193F101B09600
:10106E00B0E0B193B193B0E8B193B3E3B193F101B2
:10107E00B496B0E0B193B8E0B193F101B0EAB19398
:10108E00B6E8B193B1E0B193B0E0B1932796CDBF7E
:08109E00DEBFDF91CF91089540
:1006F000CF93DF93CDB7DEB72597CDBFDEBF219671
:100700004F925F926F927F92FE01B5ECB0838E01A3
:10071000F8013196B5E9B0838E01F8013296B0E068
:10072000B0838E01F8013396B6E6B0838E01F801EE
:100730003496BCE9B0833F922F92E9D48E0177249E
:10074000B5E05B2EB0E06B2E302E412E2090D7000E
:10075000FAD42F903F905BDE50E0543008F05BC03D
:10076000FE01B7ECB0838E01F8013196B7EFB0838C
:100770005F933F922F92CBD48E01B1E07B2EB2E0FB
:100780005B2EB0E06B2E302E412E2090D700DBD4B4
:100790008E017724B3E05B2EB0E06B2E302E412E1D
:1007A0002090D7003BDE2F903F905F91052F10E007
:1007B000000F111F9801220D331DFE010081F90168
:1007C0000193B0E0B193052F10E0000F111F9801C5
:1007D000220D331DF90101911191102F0027F9010C
:1007E00001931193052F10E0000F111F302F412F9F
:1007F000320D431D8E01F80131962081E32FF42F35
:1008000001911191022BE32FF42F01931193052FE6
:100810000F5F502FA2CF7F906F905F904F902496E4
:0A082000CDBFDEBFDF91CF91089538
:0E040E0018E605EE0A95F1F71A95E1F7089544
:10041C00CF93DF93CDB7DEB72497CDBFDEBF219648
:10042C002F92B0E0BA83BB8338824982022D000F31
:10043C0001607F926F925F92202EE091CB00F09141
:10044C00CC0009955F906F907F90052D162D015073
:10045C001040502E612EB02FB12BE9F07F926F928D
:10046C005F924F923F922F92B1E02B2EE091D800E9
:10047C00F091D90009952F903F904F905F906F901D
:10048C007F90E881F9810083088119810F5F1F4FEC
:10049C0008831983DACF7F926F925F924F923F92CB
:1004AC002F922224E091D800F091D90009952F9039
:1004BC003F904F905F906F907F90E881F98100831F
:1004CC00B0E07B1689F47F926F925F924F923F92CD
:1004DC002F92E091CD00F091CE0009952F903F9096
:1004EC004F905F906F907F90B1E07B1689F47F9274
:1004FC006F925F924F923F922F92E091C900F091D0
:10050C00CA0009952F903F904F905F906F907F900D
:10051C000A811B812F902396CDBFDEBFDF91CF9137
:02052C00089530
:0C17FE0002E00A95F1F7000000000895D9
:10122E00CF93DF93CDB7DEB72997CDBFDEBF219623
:10123E007F926F925F924F923F922F9261DF8E015B
:10124E007724B9E05B2EB0E06B2E302E412E20902D
:10125E00D700DDD82F903F904F905F906F90B1E008
:10126E002B1619F440E053E008C0B2E02B1619F427
:10127E0050E046E002C00FEF81C08E01E42FF0E097
:10128E00E00FF11F0081E32DF42D0193B0E0B19337
:10129E00E32DF42D01911191102F0027E32DF42D44
:1012AE0001931193242F30E02F5F3F4F8E01F901F0
:1012BE00E00FF11F2081E32DF42D01911191022BEE
:1012CE00E32DF42D019311938E01E52FF0E0E00F45
:1012DE00F11F0081E52DF62D0193B0E0B193B1938E
:1012EE00B193E52DF62D0191119121913191322F6E
:1012FE00212F102F0027E52DF62D01931193219309
:10130E003193252F30E02F5F3F4F8E01F901E00F13
:10131E00F11F4081E52DF62D019111912191319111
:10132E00042BE52DF62D0193119321933193E52D89
:10133E00F62D0191119121913191322F212F102FE4
:10134E000027E52DF62D0193119321933193252F2F
:10135E0030E02E5F3F4F8E01F901E00FF11F40810B
:10136E00E52DF62D0191119121913191042BE52D51
:10137E00F62D019311932193319300E07F902896DF
:0A138E00CDBFDEBFDF91CF910895BF
:1013B400CF93DF93CDB7DEB7AC97CDBFDEBF219619
:1013C400F201419151916191719148A759A76AA77E
:1013D4007BA7F201349601911191219131913F92B1
:1013E4002F927AD92F903F900C8F1D8F2E8F3F8F85
:1013F400F10141915191619171914CA35DA36EA34F
:101404007FA3F10134960191119121913191080149
:101414008A010019110909019B012009310921DA06
:101424004C8D5D8D6E8D7F8D3F922F9255D90C839F
:101434001D832E833F83F201349641915191619132
:101444007191F2013896019111912191319144D910
:101454002F903F900C8F1D8F2E8F3F8FF10134966C
:101464004191519161917191F101389601911191DC
:101474002191319108018A010019110909019B0187
:1014840020093109EED94C8D5D8D6E8D7F8D3F9293
:101494002F9222D94C815D816E817F81CED90C83BC
:1014A4001D832E833F83F2013896419151916191BE
:1014B400719108A519A52AA53BA50ED92F903F9097
:1014C4000C8F1D8F2E8F3F8FF101389641915191D2
:1014D400619171910CA11DA12EA13FA108018A0166
:1014E4000019110909019B0120093109BAD94C8D50
:1014F4005D8D6E8D7F8D3F922F92EED84C815D81F4
:101504006E817F819AD92F903F900C831D832E8307
:101514003F83F201389601911191219131910C8F01
:101524001D8F2E8F3F8FF10134964191519161911E
:1015340071910CA11DA12EA13FA1041B150B260B1B
:10154400370B8FD94C8D5D8D6E8D7F8D3F922F9291
:10155400C3D82F903F90088719872A873B8708A50F
:1015640019A52AA53BA50C8F1D8F2E8F3F8FF10146
:1015740034964191519161917191F10138960191A3
:1015840011912191319108018A0100191109090170
:101594009B012009310965D94C8D5D8D6E8D7F8D40
:1015A4003F922F9299D8488559856A857B8545D97C
:1015B4002F903F90088719872A873B87F20134963A
:1015C40001911191219131910C8F1D8F2E8F3F8F9D
:1015D400F101389641915191619171910CA11DA134
:1015E4002EA13FA108018A010019110909019B01DB
:1015F4002009310936D94C8D5D8D6E8D7F8D3F92DA
:101604002F926AD8488559856A857B8516D92F908B
:101614003F900C871D872E873F877F926F925F9242
:101624004F923F922F924C855D856E857F850C810C
:101634001D812E813F810BD92F903F904F905F9059
:101644006F907F900C831D832E833F83A2010CA196
:101654001DA12EA13FA14C8F5D8F03D94C8D5D8DB3
:1016640008A319A32AA33BA3FA01419151916191C3
:1016740071913F922F9230D82F903F900883198315
:101684002A833B83F1013496419151916191719187
:1016940082010C5F1F4F0C8F1D8F8A019B01E1D8C3
:1016A400EC8DFD8D41915191619171913F922F92F9
:1016B40013D80C871D872E873F874C855D856E85E3
:1016C4007F85088119812A813B81ADD82F903F9075
:1016D400088319832A833B83F10134964191519104
:1016E400619171910CA11DA12EA13FA108018A0154
:1016F4000019110909019B0120093109B2D84C8153
:101704005D816E817F810E946E030C871D872E8709
:101714003F874C855D856E857F85088119812A8187
:101724003B8181D8088319832A833B83F201349651
:10173400419151916191719108A519A52AA53BA5E3
:1017440072D80C871D872E873F877F926F924C85B6
:101754005D856E857F85088119812A813B8177D8D3
:101764006F907F900C871D872E873F870C851D8582
:101774002E853F85088319832A833B8308A119A1F9
:101784002AA13BA14C855D856E857F854CD8A80137
:10179400B90108A519A52AA53BA57F936F935F936B
:1017A4004F934C815D816E817F8147D84F915F91CA
:1017B4006F917F910E946E03A801B901088119817C
:1017C4002A813B81F3010193119321933193F30116
:1017D40034964193519361937193F30138960C813C
:1017E4001D812E813F810193119321933193AB96F7
:0A17F400CDBFDEBFDF91CF91089555
:1006DC00042E152E262E372E24DF002E112E222E20
:0406EC00332E08950C
:10052E004BDE81F1E62ED52EC42EB32EA22E912EA9
:10053E00802E002D112D222D332D3EDE19F16E252C
:10054E004C0D5D1D40385307F4F441387FEF5707CB
:10055E00FCF088279927AA27BB2770E2B695A795A6
:10056E0097958795379527951795079520F4880DBC
:10057E00991DAA1DBB1D7A9589F7032F3A2F292F96
:10058E00182F2FDE0AC00FEF102F2FE73FE7FACFFD
:0C059E000027102F202F302FF5CF0895DC
:1001C60057DF79F0632F6078220F331F432F5FE7E5
:1001D600451B55275040269530E8232B3327989406
:0A01E60003C044275527662708953B
:10007600002329F4112319F4222309F433230895C4
:000086007A
:1001F00042DF11F19F938F938EE790E0332351F00C
:10020000369527951795079548175907B4F44F5F0A
:100210005F4FF4CF80959095019622239AF0000FBE
:10022000111F221F481759071CF041505040F5CFAD
:10023000002711272227332708C033270FEF102F5D
:0C0240002FE7322F8F919F9105DF08956A
:1000540010D039F041585F4F342F220F3695279531
:04006400362B08959A
:060866006894C8DD08954E
:1003FA0047E16627552726F0332312F4D6DE60E854
:04040A00F2DE089581
:1001B40000951095209530950F5F1F4F2F4F3F4F9F
:0201C40008959C
:10083E00042E152E262E372EBDDE002E112E222E24
:04084E00332E0895A8
:0605C200E89497DD0895A6
:1000F400B9DF09F441C0E62ED52EC42EB32EA22EAC
:10010400912E802E002D112D222D332DABDF09F4DD
:100114003DC0842F952F8C199D09B9F072F49095E8
:10012400809501964C2D5D2D883180F53595279568
:10013400179507950197D1F708C08831E8F4B5946D
:10014400A794979487940197D1F766272EF0080D0A
:10015400191D2A1D3B1D09C0801A910AA20AB30A5F
:10016400082D192D2A2D3B2D332312F421D060E8BC
:100174003DD001C06DDF16C0002D112D222D332D71
:10018400D6F777DFC1F340E83427F5CF082D192DD2
:100194002A2D3B2D4C2D5D2D6E2D33235AF708D07F
:0601A40060E8E8CF0895B9
:0E006800AED021F0662309F0A1D0989408953F
:10085200042E152E262E372E73DD002E112E222E5B
:04086200332E089594
:100342003F932F931F930F93002D112D222D332DA9
:1003520039DF09F44BC0E62ED52EC42EB32EA22EC1
:10036200912E802E0F911F912F913F912BDF61F1E2
:100372006E254C195D09403853073CF541387FEF33
:1003820057077CF180E27724632E522E412E302FC4
:10039200222711270027000F111F221F331F441C81
:1003A200551C661C771C28F0481859086A087B08F7
:1003B20004C0480C591C6A1C7B1C0AF001608A9517
:1003C20051F74150504013DF16C00FEF102F2FE7A7
:1003D2003FE76623C9F34EDEB9F3342D30E8342506
:1003E200F3CF0027102F202F302FEECF0F900F903A
:0803F2000F900F90EACF08956F
:10082A00042E152E262E372E84DD002E112E222E72
:04083A00332E0895BC
:06033C006894DADE08956A
:100F9E009801249F8001259F100D349F100D0895F8
:000FAE0043
:060DB600E89420DB089523
:100DBC0004DAF1F05523C2F04F31A8F44731C1F0F9
:100DCC0050F44195495E05C03595279517950795C3
:100DDC004A95D1F70DC04751000F111F221F331F29
:100DEC004A95D1F705C03FE7232F132F032F03C0DC
:080DFC00662309F0D9D908951E
:101892002F9220E030E0022D10E027FC1FEFB0E095
:1018A2002B167CF489010F5F1F4F980100E010E0B6
:1018B2000219B0E027FCBFEF1B0BA8018A01A901A6
:1018C20001C0A9015F934F93202E9BDA4F915F9144
:1018D20064E070E000E010E00617170788F49B014F
:1018E200230D341D8B0101501040F801E30DF41D4E
:1018F2000081F90100838B0101501040B801EACF49
:10190200E32DF42DB0E2B083B42FB52BA9F020E083
:1019120030E0F901E30DF41D0081003229F4890160
:101922000F5F1F4F9801F5CF890101501040F80158
:0C193200E30DF41DBDE2B0832F9008957A
:100E0400CF93DF93CDB7DEB72297CDBFDEBF219658
:100E140010E0133050F4E12FF0E0E30DF41DB0E2E4
:100E2400B083012F0F5F102FF4CFE12FF0E0E30D1B
:100E3400F41DB0E0B083012F0150302F032F10E0D8
:100E4400030D141D088319834AE0022D39DC092F90
:100E5400202F205D08811981F80120834AE0022DAA
:100E64002FDC202E003009F404C0032F0150302F52
:0E0E7400E5CF2196CDBFDEBFDF91CF9108956F
:1006C400992779E004C0991F941708F0941B001F20
:0806D4007A95C9F7009508951D
:10180A00CF93DF93CDB7DEB72297CDBFDEBF219648
:10181A0010E0153050F4E12FF0E0E40DF51DB0E2D0
:10182A00B083012F0F5F102FF4CFE12FF0E0E40D0A
:10183A00F51DB0E0B083012F0150302F032F10E0C7
:10184A00040D151D088319834AE050E0810146DC26
:10185A008D01202F205D08811981F80120834AE03B
:10186A0050E081013BDC8C011801103009F4003092
:10187A0009F404C0032F0150302FE0CF2196CDBFC9
:08188A00DEBFDF91CF9108954C
:1010E600C801BA01AA1BBB1B51E107C0AA1FBB1F3F
:1010F600A617B70710F0A61BB70B881F991F5A959E
:08110600A9F78095909508956A
:0A1F660005900D920197E1F7089530
:1021A200A0E6B0E0E0E0F1E285E690E00E94B30F45
:0221B20008958E
:1021650062015D016C016701580149014401530198
:102175004E018F018A01990163046D0468041505F8
:1021850042053D0538054C054705330529052E054E
:08219500A0049D04E702DB0435
:04219D00801A06009E
:0421000000000000DB
:1021040054656D7065726174757265206973203AE7
:022114002000A9
:102116002A2A20416C746974756465203320636CC7
:1021260069636B20697320696E697469616C697A89
:062136006564202A2A0066
:01213C0000A2
:10213D002A2A2A20496E697469616C697A696E6709
:08214D002E2E2E202A2A2A0062
:0F2155005072657373757265206973203A2000AC
:01216400007A
:00000001FF
