:020000040800F2
:10000000FCFF0020D12C0000C92C0000C92C0000EE
:10001000C92C0000C92C0000C92C0000C92C00000C
:10002000C92C0000C92C0000C92C0000C92C0000FC
:10003000C92C0000C92C0000C92C0000C92C0000EC
:10004000C92C0000C92C0000C92C0000C92C0000DC
:10005000C92C0000C92C0000C92C0000C92C0000CC
:10006000C92C0000C92C0000C92C0000C92C0000BC
:10007000C92C0000C92C0000C92C0000C92C0000AC
:10008000C92C0000C92C0000C92C0000C92C00009C
:10009000C92C0000C92C0000C92C0000C92C00008C
:1000A000C92C0000C92C0000C92C0000C92C00007C
:1000B000C92C0000C92C0000C92C0000C92C00006C
:1000C000C92C0000C92C0000C92C0000C92C00005C
:1000D000C92C0000C92C0000C92C0000C92C00004C
:1000E000C92C0000C92C0000C92C0000C92C00003C
:1000F000C92C0000C92C0000C92C0000C92C00002C
:10010000C92C0000C92C0000C92C0000C92C00001B
:10011000C92C0000C92C0000C92C0000C92C00000B
:10012000C92C0000C92C0000C92C0000C92C0000FB
:10013000C92C0000C92C0000C92C0000C92C0000EB
:10014000C92C0000C92C0000C92C0000C92C0000DB
:1001500081B0194900EA0101084600220EE004209E
:1001600022E0082020E010201EE020201CE040209B
:100170001AE0802018E040F2001015E00F49884294
:10018000EDD00F498842ECD00E498842EBD00E49A1
:100190008842EAD00D498842E9D00D498842E8D02A
:1001A0000C498842E7D010460B49096841EA000231
:1001B00009490A6001B0704700FCFFFF00080140D8
:1001C000000C0140001001400014014000180140E3
:1001D000001C0140002001401810024081B0CDF801
:1001E00000E08CB21546774B00EA03031E46184622
:1001F000FFF7AEFFB4F1FF0F0CD1734B9D4203D15B
:100200004FF033333360D9E0422D03D14FF0443304
:100210003360D3E04FF6FF739C4214D16A4B9D428A
:1002200007D14FF033333360341D4FF03333236045
:10023000C4E0422D07D14FF044333360341D4FF0FA
:1002400044332360BAE00021002005F001030BB124
:1002500000211DE005F0020333B105F4C0730BB1BA
:10026000082100E0042113E005F0040333B105F098
:1002700020030BB1042100E0002109E005F0080390
:1002800033B105F020030BB10C2100E00821FFE79A
:100290004E4B05EA03030BB1032009E005F400739C
:1002A0000BB1022004E005F480630BB10120FFE7ED
:1002B00005F00C030BB10143FFE704F0FF039BB211
:1002C000002B3BD0376800201FFA84F832462E46B8
:1002D00008282CD24FF0010303FA00F408EA0403C3
:1002E000A34222D185004FF00F03AB40DB4307EA66
:1002F000030401FA05F344EA03031D4606F481737F
:10030000B3F5817F05D102F214044FF0010383405D
:10031000236006F08203822B05D102F210044FF015
:100320000103834023602F46FFE7401CD0E717609E
:100330001FFA88F00F463146164602E00F4629465E
:10034000A0B2B0F1FF0F39D9331DD3F800800022DD
:10035000082A30D202F208044FF0010303FA04F431
:1003600000EA0403A34224D195004FF00F03AB40F1
:10037000DB4308EA030807FA05F348EA030801F437
:100380008173B3F5817F07D106F2140502F20804E8
:100390004FF00103A3402B6001F08203822B07D1B1
:1003A00006F2100502F208044FF00103A3402B608F
:1003B000FFE7521CCCE7331DC3F80080DDF800E0F6
:1003C00001B0704700FCFFFF14000800000808009F
:1003D00081B000F218010A68C2F3400181F0010106
:1003E000C9B2C8B201B0704701480068704700BF89
:1003F000C000002083B0CDF800E000F0FF031A0930
:10040000104603F00F02134614E0194A02921FE04F
:10041000184A02921CE0184A029219E0174A029206
:1004200016E0174A029213E0164A029210E0164AAA
:1004300002920DE00028E8D00128E9D00228EAD095
:100440000328EBD00428ECD00528EDD00628EED008
:10045000012212B29A40ADF8042002980A46BDF873
:100460000410FFF7BBFEDDF800E003B0704700BFEB
:1004700000080140000C0140001001400014014040
:1004800000180140001C01400020014082B0CDF85E
:1004900000E0CFB201469846029B4FF000064FF0B5
:1004A0000005C44CA14207D1C34CD4F80090C34C02
:1004B0002568C34C25600BE0C24CA14207D1C24C59
:1004C0002068C24C2568BE4C2560814600E0A946E4
:1004D000BF4CC4F80090F4E101F210057C00A4B216
:1004E00044F00104A4B22C60019616464F46019ACE
:1004F00001F214042568C5F3400464B9B44C2468BF
:1005000044B127B90320AE4C2468A047E2E1781E2D
:100510000746FFE7ECE700250C6865F38A240C60CA
:1005200001F21404206800BF01F2180424682404B6
:1005300040EA04042046012B05D101250C6865F32F
:1005400049240C6004E001250C6865F308240C6064
:100550009F4C25689146984637460E469D49304641
:1005600000F0A2FA68B99A4C24684CB125B903206E
:10057000934C2468A047ADE16C1E20460546FFE77A
:10058000ECE707EB090506F2100424682C70B8F1BB
:10059000010F13D18E4C216830460568C5F3402405
:1005A0005CB98B4C24683CB121B90320844C24688D
:1005B000A0478FE1491EFFE7EFE712E0844C216876
:1005C00030460568C5F300245CB9814C24683CB111
:1005D00021B903207A4C2468A0477BE1491EFFE73C
:1005E000EFE777E101250C6865F38A240C600125AB
:1005F0000C6865F3CB240C6001F210057C00A4B2FA
:1006000044F00104A4B22C604F4601F214042568A2
:10061000C5F3400464B96E4C246844B127B9032083
:10062000674C2468A04755E1781E0746FFE7ECE7D2
:1006300001F21404206800BF01F2180424682404A5
:10064000204300250C6865F38A240C60604C276801
:1006500001F214042568C5F3800464B95C4C246875
:1006600044B127B90320564C2468A04732E1781ED4
:100670000746FFE7ECE7012B05D101250C6865F380
:1006800049240C6004E001250C6865F308240C6023
:10069000951901F2100424682C70741C151901F2CC
:1006A000100424682C70012B14D1494C22680D6869
:1006B000C5F3402464B9464C246844B122B90320F0
:1006C0003F4C2468A04705E1501E0246FFE7EEE7D5
:1006D000084613E03E4C22680D68C5F3002464B957
:1006E0003B4C246844B122B90320354C2468A04710
:1006F000F0E0501E0246FFE7EEE7084600250468DA
:1007000065F3CB240460E5E001250C6865F38A24D9
:100710000C6001F210057C00A4B244F00104A4B204
:100720002C604646C846894617461D462A49484613
:1007300000F0BAF978B9264C24685CB1B8F1000F22
:1007400004D103201E4C2468A047C3E0A8F1010097
:100750008046FFE7EAE70021A8464A46B1463B4605
:10076000A9F10304A14222D2194C25688A461746F2
:100770001E461849384600F097F960B9144C2468B1
:1007800044B125B903200E4C2468A047A2E0681E9E
:100790000546FFE7EDE706EB0A0507F210042468BB
:1007A0002C700AF10104214633463A46D8E7084C3A
:1007B00000F014B80054004080000020C800002061
:1007C000C40000200058004084000020CC0000201D
:1007D0008800002040000300020003002768019306
:1007E0000B4616464246019906F214042568C5F3E5
:1007F000800464B9394C246844B127B90320384CCB
:100800002468A04766E0781E0746FFE7ECE700256E
:10081000346865F38A243460CD1806F21004246825
:100820002C70581C2D4C23681746024606F21404FF
:100830002568C5F3800464B9284C246844B123B901
:100840000320274C2468A04744E0581E0346FFE7D6
:10085000ECE7012F07D10125346865F349243460A2
:100860001046324621E00125346865F308243460DF
:100870001A4CD4F8008017460D461A49304600F04D
:1008800013F978B9154C24685CB1B8F1000F04D1A4
:100890000320134C2468A0471CE0A8F10100804607
:1008A000FFE7EAE72946324638460D1802F21004FF
:1008B00024682C70441C0D1902F2100424682C705A
:1008C00008E0B8F1010F3FF407AEB8F1020F3FF4B2
:1008D00089AE19E7DDF800E002B07047880000201B
:1008E000C40000200100030081B000F214010A6876
:1008F00000F218010968090442EA0101084601B042
:100900007047FFFF01490860704700BFA88122427D
:1009100001490860704700BFA48122420149086074
:10092000704700BF9401214201490860704700BF31
:100930008C01224201490860704700BF9C8121421E
:1009400001490860704700BFA08122420149086048
:10095000704700BF9881214201490860704700BF7D
:10096000B481224201490860704700BF88012242D9
:1009700001490860704700BF9001214201490860A9
:10098000704700BFA801224201490860704700BFBC
:100990008001214201490860704700BFB001224236
:1009A00001490860704700BFAC012242014908605C
:1009B000704700BF9C81214201490860704700BF19
:1009C0009881214201490860704700BF948122420A
:1009D00081B0CDF800E04FF000021949884207D1FC
:1009E00018490B6818490A6818490A601C460BE048
:1009F0001749884207D117490B6817490A681349F4
:100A00000A601C4600E0144614490C600346184670
:100A1000FFF7DEFC70B91149096851B12CB9052006
:100A20000A4C2468A047002005E0611E08460446E1
:100A3000FFE7ECE70120DDF800E001B0704700BF00
:100A40000054004080000020C8000020C4000020A6
:100A50000058004084000020CC00002088000020C6
:100A600081B0CDF800E008B413460A46C1B204488C
:100A7000FFF70CFD01B0DDF800E001B0704700BFEA
:100A80000058004081B0CDF800E008B413460A4693
:100A9000C1B20448FFF7FAFC01B0DDF800E001B094
:100AA000704700BF0054004081B0CDF800E00B4615
:100AB000FFF71AFF00EA03029A4240F2000200D157
:100AC0000122D0B2DDF800E001B0704701490860B2
:100AD000704700BFAC01224201490860704700BF67
:100AE000A801224201490860704700BFB881224234
:100AF00001490860704700BFB00122420149086007
:100B0000704700BF9881224201490860704700BFCA
:100B1000B081224201490860704700BFB081224283
:100B200082B0CDF800E0034619460191FFF75CFC66
:100B300040F2E83100FB01F201990A601F4909788F
:100B4000C1F30311C8B21E4909180878C0B21A1DB2
:100B50001968C140116019490988C1F3022188B29E
:100B6000174909180878C0B203F20802191D09686C
:100B7000C140116011490988C1F3C22188B21049EE
:100B800009180878C0B203F20C02191D0968C140A7
:100B900011600A490988C1F3813188B209490918ED
:100BA0000978C8B203F2100203F20C010968B1FB24
:100BB000F0F11160DDF800E002B07047041002406F
:100BC00010310000BC24000081B0CDF800E001220B
:100BD00052B23E490A6000F268010B686FF0006192
:100BE00003EA0102144603F00061C90E0B4602F04D
:100BF0000041B1F1004F02D135490A6801E03549A1
:100C00000A6804F47021090C0E464FF6FF7104EADD
:100C100001010D4604F44011B1F5401F0DD16FF0F4
:100C2000706102EA01010E462A490A686FF070619C
:100C30000A4028490A60324616E004F48011B1F5F2
:100C4000801F09D14FF00301B140C94302EA0101FD
:100C500041F070610A4607E0610D090105FA01F1F2
:100C6000C9430A4042F070622BB1610D090105FAD7
:100C700001F10A43FFE704F00041B1F1004F02D156
:100C800013490A6001E013490A6040F2000A8146F4
:100C90004FEA8A0109EB01010968B1F1FF3F10D069
:100CA00009F134014FEA8A03C91809680A4609EBB9
:100CB0000301096808461146FFF79CFB0AF1010A87
:100CC000E6E7DDF800E001B0704700BF00034242F4
:100CD0001C0001400400014081B0ADF80010014645
:100CE000BDF800000B68C3F3C01202B9FAE70A1D91
:100CF000106001B07047FFFF82B0CDF800E040F215
:100D00000004ADF80440044C2468A047BDF9040079
:100D1000DDF800E002B07047B4000020A0860100BA
:100D200042F6DF67C0F200077F1EFDD100BF00BFA3
:100D300000BF00BF00BF70474DF2BF47C0F20107C0
:100D40007F1EFDD100BF00BF00BF00BF00BF7047C6
:100D500089B0CDF800E0834698B28C46BDF82410E7
:100D60000A9E04ACADF80410ADF808002046FFF769
:100D7000D7FEBDF80800BDF80410644CA34512D19D
:100D800001256DB2624C2560624D634C2560634D58
:100D9000634C2560634D644C2560644D644C256054
:100DA000079C039456E0634CA34512D101256DB214
:100DB000614C2560614D584C2560614D584C256053
:100DC000604D594C2560604D594C2560069C03943C
:100DD00040E05E4CA34512D101256DB25C4C25600C
:100DE0005C4D4D4C25605C4D4D4C25605B4D4E4C33
:100DF00025605B4D4E4C2560069C03942AE0594CBF
:100E0000A34512D101256DB2574C2560574D424C78
:100E10002560574D424C2560564D434C2560564D3C
:100E2000434C2560069C039414E0544CA34511D117
:100E300001256DB2524C2560524D374C2560524D04
:100E4000374C2560514D384C2560514D384C25604C
:100E5000069C0394ADF80410ADF808003046FFF787
:100E6000B3FEBDF80800BDF804100BF11005002416
:100E70002C600BF110052C680C432C600BF10C0559
:100E800000242C6018B140F4806080B2FFE70BF1C1
:100E90000C052C6804432C600BF10C06012534680A
:100EA00065F34D3434600BF10C060125346865F3AD
:100EB000C30434600BF10C060125346865F3820429
:100EC00034600BF1140500242C60039D1924654344
:100ED0004FEA8C04B5FBF4F76424B7FBF4F4260165
:100EE000350964246C433C1B240104F2320564245C
:100EF000B5FBF4F404F00F0446EA04040BF1080512
:100F0000A4B22C60DDF800E009B070470038014061
:100F100038034242851B0000DC000020651C0000F5
:100F2000E00000204D1C0000E40000204D150000F2
:100F3000E800002000440040C4034242A11B00001E
:100F4000351500007D1500006515000000480040C3
:100F5000C8034242E51B0000AD15000095150000D6
:100F60001D150000004C0040CC034242191B00003C
:100F7000C5150000911A0000791A000000500040C9
:100F8000D0034242FD1A0000611A0000E51A000079
:100F9000CD1A000088B0CDF800E00E46554B9842BF
:100FA0000DD1012464B2544B1C60544C544B1C6052
:100FB000544C554B1C60554C554B1C600FE0554B29
:100FC00098420CD1012464B2534B1C60534C4C4BDF
:100FD0001C60534C4C4B1C60524C4D4B1C6001969A
:100FE00002901046FFF7F0FD0298019E031D1B685A
:100FF0009CB26FF03F0304EA03039DB203AB019080
:101000001846FFF78DFD0198059F059C464BB4FBE4
:10101000F3F399B29BB245EA0304A4B2031D1C602A
:101020000024036864F30003036000223F4B9E42E8
:1010300012D87300B7FBF3F4A4B2042C02D2042339
:101040001C46FFE742EA04039AB200F220044B1C5C
:101050009BB2236091B23FE0032306FB03F4B7FB8E
:10106000F4F31FFA83F8192306FB03F5B7FBF5F336
:101070001FFA83F908FB04F409FB05F33C1BFB1A78
:101080009C4205D203237343B7FBF3F4A4B206E0FA
:1010900019237343B7FBF3F4A4B244F4804440F63D
:1010A000FF7304EA030313B944F00104FFE744F4B7
:1010B00000439BB21A4392B200F2200540F22C1377
:1010C00001FB03F4A4B240F2E833B4FBF3F39BB2A8
:1010D0005B1C9BB22B6091B200F21C0319600023D1
:1010E00003600124036864F300030360DDF800E09B
:1010F00008B0704700540040D4034242351C000041
:10110000D0000020850A0000D4000020A91A0000A9
:10111000D800002000580040D8034242011C0000C3
:10112000610A00003D1A000040420F00A086010045
:1011300082B0CDF800E0029E4FF00005564CA04270
:1011400006D1564C2768564C2568564C25600AE057
:10115000554CA04206D1554C2768554C2568514C3A
:10116000256000E02F46534C276000F210054C002C
:10117000A4B22C60B9460746904635461E464E49F5
:101180003846FFF791FC88B94A4C24686CB1B9F134
:10119000000F06D10420434C2468A0474FF6FF708F
:1011A00076E0A9F101008146FFE7E8E7002001971A
:1011B00029463746019E7C1EA04226D206F2100523
:1011C00008EB000424782C603A4CD4F80090824656
:1011D0000D463A493046FFF767FC88B9354C24681C
:1011E0006CB1B9F1000F06D104202E4C2468A04741
:1011F0004FF6FF704CE0A9F101008146FFE7E8E7F8
:101200000AF1010420462946D5E706F2100508EB4D
:10121000000424782C60274C27680D462849304666
:10122000FFF742FC70B9234C246854B137B904204D
:101230001C4C2468A0474FF6FF7029E0781E074633
:10124000FFE7EBE7012D05D10125346865F349245B
:1012500034601CE00125346865F308243460154CC3
:101260002768354617492846FFF71EFC78B9114C08
:1012700024685CB137B904200A4C2468A0474FF6B3
:10128000FF7005E07C1E20460746FFE7EAE70020E6
:10129000DDF800E002B070470054004080000020FC
:1012A000C8000020C4000020005800408400002036
:1012B000CC0000208800002082000700800007008A
:1012C000840007000100030081B0CDF800E0930026
:1012D000CB181B681C468246204689460FFA82F8C6
:1012E000B8F1000F10D0524600F0E8FCA8F101035D
:1012F0001BB20FFA83FB9B0009EB03031A6800F093
:1013000059FF0FFA8BF8EBE7DDF800E001B070470A
:1013100083B0CDF800E003464FF0000026498B4231
:1013200006D126490C6826490A6826490A600BE05E
:1013300025498B4207D12549086825490A68214972
:101340000A60044600E0044622490C6001940293BE
:101350001846FFF73DFB029B019C10B94FF6FF704A
:1013600025E00122196862F30821196003F21401D3
:101370000A68C2F3402111B14FF6FF7017E025460D
:101380001C4615492046FFF78FFB78B911490968BB
:1013900059B135B906200B4C2468A0474FF6FF70B1
:1013A00005E0691E08460546FFE7EAE70020DDF88C
:1013B00000E003B0704700BF0054004080000020F0
:1013C000C8000020C4000020005800408400002015
:1013D000CC000020880000200100030081B00168DB
:1013E000C1F3401001B0704783B0CDF800E0ADF814
:1013F00004100146BDF904000291BDF80A20C2F3B1
:10140000C712821810B212B2002A02DA4FF000009E
:1014100019E0B0F1FF0F0EDD4FF000000A4600F0BA
:10142000D9FA40F2000000DD012010B16FF4000095
:1014300009E0074807E083B2BDF80A2063F3CE1243
:10144000ADF80A200298DDF800E003B0704700BF55
:10145000FFFF7F7F82B0CDF800E0019001A909680D
:10146000C90D01F0FF0109B27F3909B208B20029A4
:101470000EDA019A4FF0000000F0ACFA40F20000E2
:1014800000DD012008B111481CE04FF0000019E018
:1014900081B2182901D9019814E0019800F0FAFCF2
:1014A00000F0ECFB0146019A00F094FA40F20000D3
:1014B00000DD012028B108464FF07E5200F08EF882
:1014C00000E00846DDF800E002B07047000080BF91
:1014D00081B00168C1F3801001B0704781B002682B
:1014E000C2F3401101B9FAE7011D096888B201B0E1
:1014F0007047FFFF81B00090BDF80220C2F3C71211
:101500007E3A10B208807E23BDF8022063F3CE122B
:10151000ADF80220009801B07047FFFF81B0CDF810
:1015200000E00348FFF7D4FFDDF800E001B07047AA
:101530000048004081B0CDF800E00348FFF7CEFF3F
:10154000DDF800E001B070470044004081B0CDF804
:1015500000E00348FFF7BCFFDDF800E001B0704792
:101560000038014081B0CDF800E00348FFF7B0FF3C
:10157000DDF800E001B070470044004081B0CDF8D4
:1015800000E00348FFF72AFFDDF800E001B07047F4
:101590000044004081B0CDF800E00348FFF71EFF93
:1015A000DDF800E001B070470048004081B0CDF8A0
:1015B00000E00348FFF792FFDDF800E001B070475C
:1015C0000048004081B0CDF800E00348FFF786FFF7
:1015D000DDF800E001B07047004C004081B082F0BF
:1015E00000422DE9FA414FEA02244FEA42052D0E4E
:1015F00004D1002C18BF4FF000006CE044F0004410
:10160000FF2D5FD04FEA9404002A48BF64424FEA9E
:1016100000214FEA40031B0E05D1002914BF4FF0F3
:101620000000104657E041F00041FF2B4BD04FEA3D
:101630009101002848BF49425E1B41BF0F46214629
:101640003C46764248BF2B46192E47BF44FA06F760
:10165000C9194FF0000803E0C6F11C0704FA07F8A7
:10166000002904BF4FF0000035E046BF49424FF06B
:1016700001074FF00007A3F101034900FBD511F06A
:1016800080040DD001F0200548EA0508803128BF0C
:101690005B1C01F0400458EA040808BF21F4807183
:1016A0009B1CDCBF4FF0000015E0FF2B0DD221F09A
:1016B000FF014FEA41014FEA512040EAC35040EA9E
:1016C000C77008E010464FEAD0774FEAC777FF208F
:1016D0004FEAC0503843BDE8FA4101B07047FFFF00
:1016E00081B0FAB590EA02064CBF4FF000464FF0C9
:1016F0000006010243001B0E12BF41F000414FF0F3
:1017000000003BE0FF2B35D05FEA02245FEA420590
:101710005FEA156511BF44F000444FF0FF403043CD
:101720002CE0FF2D26D05B1B0020202764084908F1
:10173000A14240EB000028BF091B7F1E04D00029F6
:1017400018BF4900F4D1B84010F0004F04BF40006A
:10175000B3F1010380302CBF5B1C40007F33DCBF42
:101760004FF000000AE0FF2B04D2400A40EAC350C9
:10177000304303E0FF27FF0556EA0700BDE8FA40C3
:1017800001B0704784B0CDF800E0039001ABC521F3
:1017900019705A1C952111709A1C00211170DA1CC5
:1017A000662111701A1D9C21117000F083FD01AAA1
:1017B000284909780123C8B21146052200F0AEFD80
:1017C000FFF7BAFA00218DF809109DF809100429D5
:1017D0003BD201AAC7211170521CF721117000F0F1
:1017E00069FD01AA1B4909780023C8B211460222EB
:1017F00000F094FD01AA174909780123C8B21146E7
:101800000322FFF779FAFFF78BFA9DF809104A00D7
:1018100003998A1801AC217811809DF809104A00BB
:1018200003998A181188090211809DF809104A004D
:1018300003998B18611C0A781988114319809DF847
:101840000910491C8DF80910BFE7DDF800E004B06D
:10185000704700BFAE00002084B0CDF800E0024623
:101860004FF00000019200F0B5F840F2000000D106
:101870000120019A10B14FF07E5060E03248019291
:1018800000F0A8F840F2000000DA0120019A08B147
:101890002E4854E02E48019200F09CF840F20000DF
:1018A00000DD0120019A10B14FF0000047E04FF039
:1018B0000000019200F08EF840F2000000DD0120EF
:1018C000019A5FFA80FCC1B221B182F00041084662
:1018D000014600E011461F480A4600F0EFF9814634
:1018E000FFF7B8FD00F0D6FA00B2ADF8080000F03E
:1018F000C5F90390039A4846FFF770FE40F20902CB
:1019000012B21549FFF7E0FCBDF90810FFF76CFDB6
:101910000146BCF1000F11D00C480A4600F05AF8FD
:1019200040F2000000D1012010B14FF0000006E0AD
:101930004FF07E500A46FFF7D3FE00E00846DDF880
:1019400000E004B0704700BFFED4B242FFFF7F7FCB
:1019500050ACAEC23BAAB83FC430000082B0CDF854
:1019600000E003464FF000001A4600F033F840F262
:10197000000000DB012010B14FF0000021E001A9C0
:101980001846FFF7B7FD4FF0804200F097F94FF08F
:101990007E52FFF723FEBDF90410491EADF8041076
:1019A00040F2080212B20949FFF78EFC8046BDF9E9
:1019B000040000F063F9064A00F080F9424600F0A6
:1019C000F9FBDDF800E002B0704700BFEC3000002A
:1019D0001872313F81B010B5904208BF2AE040EA4A
:1019E00002044FEA4404002C08BF23E0440004D161
:1019F000944201D4A41C012C1CE04FEA40044FEA9D
:101A00001464FF2C0AD14FEA42044FEA1464FF2CFD
:101A100004D14FEAD274B4EBD0340BE0002A06D4E0
:101A2000002802DC0024012C04E0904202E000289F
:101A300048BF8242BDE8104001B0704781B0CDF888
:101A400000E008B413460A46C1B20448FFF770FB31
:101A500001B0DDF800E001B0704700BF0058004061
:101A600081B0CDF800E00348FFF738FDDDF800E075
:101A700001B070470050004081B0CDF800E003484D
:101A8000FFF726FDDDF800E001B07047004C004094
:101A900081B0CDF800E00348FFF7A0FCDDF800E0DE
:101AA00001B07047004C004081B0CDF800E008B4B0
:101AB00013460A46C1B20448FFF73AFB01B0DDF80D
:101AC00000E001B0704700BF0054004081B0CDF885
:101AD00000E00348FFF7FCFCDDF800E001B07047D0
:101AE0000050004081B0CDF800E00348FFF776FCDD
:101AF000DDF800E001B070470050004081B0CDF843
:101B000000E081B20348FFF7E7F8DDF800E001B03C
:101B1000704700BF0050004081B0CDF800E081B2B6
:101B20000348FFF7D9F8DDF800E001B0704700BFC7
:101B3000004C004081B0CDF800E0019D2C4610B46F
:101B400008B493B28AB201460348FFF701F902B024
:101B5000DDF800E001B070470048004081B0CDF8EA
:101B600000E0019D2C4610B408B493B28AB201463D
:101B70000348FFF7EDF802B0DDF800E001B0704770
:101B80000044004081B0CDF800E081B20348FFF787
:101B9000A3F8DDF800E001B0704700BF0038014055
:101BA00081B0CDF800E081B20348FFF795F8DDF889
:101BB00000E001B0704700BF0044004081B0CDF8A4
:101BC00000E0019D2C4610B408B493B28AB20146DD
:101BD0000348FFF7BDF802B0DDF800E001B0704740
:101BE0000038014081B0CDF800E081B20348FFF732
:101BF00073F8DDF800E001B0704700BF0048004016
:101C000081B0CDF800E00348FFF782FBDDF800E08B
:101C100001B070470058004081B0CDF800E00A469E
:101C200001460348FFF7B6F9DDF800E001B0704760
:101C30000054004081B0CDF800E00348FFF768FB96
:101C4000DDF800E001B070470054004081B0CDF8ED
:101C500000E00348FFF7C2FBDDF800E001B0704789
:101C60000038014081B0CDF800E00348FFF736FCB2
:101C7000DDF800E001B070470038014081B0002875
:101C800008BF19E006B554BF0146D0F100014FF07E
:101C90009E0202D4521E4900FCD580312CBF521C3A
:101CA00049004FEA512141EAC25100284CBF41F09E
:101CB00000400846BDE8064001B0704781B0FAB563
:101CC00090EA02064CBF4FF000464FF000064FEA84
:101CD00000214FEA40031B0E12BF41F000414FF0BC
:101CE00000002CE0FF2B26D04FEA02244FEA4205E9
:101CF0002D0E12BF44F000444FF000001FE0FF2DF6
:101D000019D05B19A1FB0454002C5CBF64005B1E5E
:101D1000803424BF5B1C64087E3BDCBF4FF00000B6
:101D20000DE0FF2B07D24FEA142030F4000040EA08
:101D3000C350304303E0FF27FF0546EA0700BDE834
:101D4000FA4001B07047FFFF81B0002808BF0FE0E4
:101D500002B54FF09E0202D4521E4000FCD58030E6
:101D60002CBF521C4000400A40EAC250BDE802406D
:101D700001B0704781B00A460021C5B21046032960
:101D800005D2431820221A70491CC9B2F7E743183C
:101D900000221A70491EC9B244180A23B5FBF3F297
:101DA00003FB1252D2B2303222700A22B5FBF2F299
:101DB000D2B2D5B202B902E0491EC9B2ECE701B015
:101DC0007047FFFF87B0CDF800E001911146C2B225
:101DD0000198019102908DF80C2000F06BFA04AC90
:101DE000214B1B7809222146D8B20123FEF784FF3C
:101DF0009DF80C2002980199012A02D100240322A7
:101E000006E0022A02D10022062401E0FF2027E09A
:101E100004AD2B191B780380B0F900301B0203803E
:101E2000631C1BB2EB181C78B0F90030234303800D
:101E3000AB181B780B600B681B020B60531C1BB2AA
:101E4000EB181C780B6823430B600B681B020B60BC
:101E5000931C1BB2EB181C780B6823430B6000200B
:101E6000DDF800E007B07047AE00002002680649C8
:101E70000A60011D0A6805490A6000F208010A6843
:101E800003490A60704700BFB8000020BC00002072
:101E9000B400002081B006B54FEA40024FEA12625A
:101EA0007F3A44BF4FF0000011E0D2F11F0209D980
:101EB0004FEA002141F00041D14000284CBF484288
:101EC000084604E000284FF0004058BF401EBDE81F
:101ED000064001B07047FFFF84B0CDF800E00391E9
:101EE000014600228DF80820039A4FF00000FFF70A
:101EF00071FD40F2000000D1012010B14FF07E5082
:101F00003FE04FF000000A46FFF764FD40F200009A
:101F100000D1012010B14FF0000032E04FF000007E
:101F20000A46FFF757FD40F2000000DD0120C8B16E
:101F300001910398FFF7AEFF0346FFF79FFE01995B
:101F4000039AFFF747FD40F2000000D0012010B1D6
:101F50004FF0000015E003F001028DF8082081F039
:101F6000004000E00846FFF7F9FC039AFFF7A6FEE1
:101F7000FFF772FC9DF808201AB180F0004210466D
:101F8000FFE7DDF800E004B07047FFFF81B0CDF857
:101F900000E002B5002802D5FFF77CFF13E04FEA0E
:101FA00040014FEA11617F393CBF4FF000000AE069
:101FB000D1F11F0105D34FEA002040F00040C84096
:101FC00001E00020401EBDE80240DDF800E001B065
:101FD0007047FFFF86B0CDF800E083468A46914601
:101FE000DAF8002005920AF104031868FFF766FE8C
:101FF0000290DBF8004004940BF104031B68E31A21
:102000001846FFF73BFE029AFFF758FE80460AF19A
:1020100008031A680598FFF751FE02900BF10803B8
:102020001C68049BE31A1846FFF728FE029AFFF784
:1020300045FE424600F0BEF880460AF104031A68E5
:102040000AF108031868FFF739FE02900BF1040348
:102050001C680BF108031B68E31A1846FFF70EFE15
:10206000029AFFF72BFE424600F0A4F884460AF1DC
:1020700008031B6802930BF104031C68049B1B1BE1
:102080001846FFF7FBFD029AFFF718FE80460AF19B
:1020900004031B6802930BF108031C68049BE31AFA
:1020A0001846FFF7EBFD029AFFF708FE424600F0E4
:1020B00081F88046059B02930BF104031C680BF129
:1020C00008031B68E31A1846FFF7D8FD029AFFF7CA
:1020D000F5FD424600F06EF80290019102990A4621
:1020E0006046FFF7FDFA019984465446049B02942A
:1020F0001846FFF729FE029B03901A68FFF7DEFDE2
:1021000080460BF104031C680AF104030293204685
:10211000FFF71AFE029B1A68FFF7D0FD02900191AB
:1021200002990A464046FFF759FA019980460BF199
:1021300004031C68049BE31A1846FFF79FFD6246E0
:10214000FFF7BCFD0290019102990A464046FFF755
:1021500045FA019983460AF104031A680598FFF7C6
:102160003DFA0290019102990A465846FFF7B8FAE3
:10217000029001990190029882460198039801917A
:1021800002990A46FFF72AFA0199834605986246A2
:1021900000F010F85A46FFF791FD09F10803C3F863
:1021A00000C009F104031860C9F800A0DDF800E0E0
:1021B00006B0704781B02DE9FA414FEA02244FEA98
:1021C00042052D0E04D1002C18BF4FF000006CE02A
:1021D00044F00044FF2D5FD04FEA9404002A48BF2A
:1021E00064424FEA00214FEA40031B0E05D100294B
:1021F00014BF4FF00000104657E041F00041FF2BA4
:102200004BD04FEA9101002848BF49425E1B41BFB5
:102210000F4621463C46764248BF2B46192E47BF03
:1022200044FA06F7C9194FF0000803E0C6F11C078D
:1022300004FA07F8002904BF4FF0000035E046BF5C
:1022400049424FF001074FF00007A3F10103490095
:10225000FBD511F080040DD001F0200548EA0508F7
:10226000803128BF5B1C01F0400458EA040808BF15
:1022700021F480719B1CDCBF4FF0000015E0FF2BA8
:102280000DD221F0FF014FEA41014FEA512040EA0F
:10229000C35040EAC77008E010464FEAD0774FEAD3
:1022A000C777FF204FEAC0503843BDE8FA4101B07C
:1022B0007047FFFF82B0CDF800E040F20004ADF8B7
:1022C0000440064C2468A047BDF9041041EA000010
:1022D00000B2DDF800E002B0704700BFB800002097
:1022E0007047FFFF81B0CDF800E0094902B440F229
:1022F000000340F2000240F20001FFF75FFC01B072
:10230000044A05490A600020DDF800E001B070478A
:10231000202F0000851B0000B000002082B0CDF807
:1023200000E040F20004ADF80440054C2468A047EA
:10233000BDF90440044320B2DDF800E002B070476C
:10234000BC00002081B0CDF800E0094902B440F2A1
:10235000000340F2000240F20001FFF7FFFB01B072
:10236000044A05490A600020DDF800E001B070472A
:102370008C2F0000A11B0000B000002081B0CDF820
:1023800000E0094902B440F2000340F2000240F2CA
:102390000001FFF7E3FB01B0044A05490A60002091
:1023A000DDF800E001B070478C2F0000A11B000099
:1023B000B000002081B0CDF800E001680846044973
:1023C000FFF72AFC0020DDF800E001B0704700BFF5
:1023D000F82F000081B0CDF800E0016808460449FC
:1023E000FFF71AFC0020DDF800E001B0704700BFE5
:1023F000F82F000081B0CDF800E0094902B440F2A6
:10240000000340F2000240F20001FFF793FB01B02D
:10241000044A05490A600020DDF800E001B0704779
:10242000B42E0000E51B0000B000002084B0CDF801
:1024300000E002A901900846FFF7A4F901980024E2
:10244000042C09D2011D6300CA1802A9C918098801
:102450001180641CE4B2F3E700F20C024AF6C87182
:10246000116000F20C010A1D0F49116000F20C010D
:1024700001F208020D49116000F218020C491160C6
:1024800000F21C020B49116000F220024FF04E5185
:10249000116000F2240240F600011180064901603B
:1024A000DDF800E004B0704780380100289A010090
:1024B0000000604A0000384BA086010002040608B4
:1024C00044F67F77C0F212077F1EFDD100BF00BF28
:1024D00000BF00BF00BF704781B0CDF800E00178B9
:1024E000CCB2A0B2034C2468A0470020DDF800E085
:1024F00001B07047B000002081B0CDF800E0044684
:10250000074B1A700846FFF7B1FC2046FFF7E8FEBC
:102510000024044B1C70DDF800E001B0704700BFE0
:10252000AE000020AF00002081B0CDF800E08B4667
:1025300009E05846FFF73EFF0AE05846FFF74AFF1A
:1025400006E0012004E00028F3D00128F5D0F8E7E8
:10255000DDF800E001B0704782B0CDF800E001A9DD
:1025600080200870491C5D200870FFF7A3FE01A9B8
:102570000648007801230222FFF7D0FE002104481C
:102580000170DDF800E002B0704700BFAE0000202F
:10259000AF00002081B0CDF800E020210948017093
:1025A000B021094801704321084801700021084802
:1025B00001700221034800F06FF8DDF800E001B07F
:1025C000704700BF8C0000208D0000208E0000208E
:1025D0008F00002081B00A4681B200208DB21146E2
:1025E000052805D20B1820221A70401CC0B2F7E74C
:1025F0000B1800221A70401EC0B20C180A23B5FB3B
:10260000F3F203FB125292B2303222700A22B5FB6F
:10261000F2F292B295B202B902E0401EC0B2ECE70B
:1026200001B0704781B0CDF800E00E46002142B203
:1026300092B293B2002805DA491C89B2404280B2B6
:102640008FB201E098B28FB23146C0B2FFF792FB71
:1026500004213446B8B2002908D963184A1E92B240
:10266000A21812781A70491E89B2F4E7202222704B
:1026700070B1002081B2204642181278202A02D17F
:10268000491C89B2F8E74A1E92B283182D221A70AB
:10269000DDF800E001B0704783B0CDF800E00246FD
:1026A00010460D228DF808200A228DF809201FE01F
:1026B000FFF712FF23E002782AB10190FFF70CFF29
:1026C0000198401CF7E71AE002782AB10190FFF761
:1026D00003FF0198401CF7E702AA1046FFF7FCFE33
:1026E0000DF109021046FFF7F7FE08E0062007E0AB
:1026F0000029DDD00129DED00229E5D0F6E700204F
:10270000DDF800E003B0704781B0CDF800E00E4680
:10271000002183B2002805DA0121404280B280B254
:102720008FB201E098B28FB23146FFF753FF062116
:102730003446B8B2002908D963184A1E92B2A218CA
:1027400012781A70491E89B2F4E72022227070B103
:10275000002081B2204642181278202A02D1491C5A
:1027600089B2F8E74A1E92B283182D221A70DDF85A
:1027700000E001B07047FFFF82B0CDF800E046F204
:102780009C0188420CD046F62501884208D047F2C9
:10279000DF01884204D047F66601884200D003E09A
:1027A00001218DF8041016E044F21A0188420CD081
:1027B00044F6A301884208D045F25901884204D06A
:1027C00045F6E001884200D003E002218DF80410B4
:1027D00001E0FF2013E00DF10502010A1170511C08
:1027E0000870FFF767FD0DF105020749097801231D
:1027F000C8B211460222FFF791FD9DF80400DDF8F2
:1028000000E002B0704700BFAE00002081B0CDF8FC
:1028100000E011E00846FFF7EDFD16E00846FFF77F
:10282000ADFD12E00846FFF75DFD0EE00846FFF73C
:1028300089FD0AE0012008E00028EBD00128EDD056
:102840002028EFD03028F1D0F4E7DDF800E001B027
:102850007047FFFF93B0CDF800E00A910B920C9304
:10286000FFF72EFE6E4C24783CB96E48FFF7DEFD74
:1028700001256B4C25700320CDE002AD01AC2A464A
:102880002146FFF79FFA8DF80C00B0F1FF0F02D13F
:102890009DF80C00BFE0BDF90440A4F500440FFA18
:1028A00084F9614C2088FFF74FFA03460FFA89F04C
:1028B000FFF7E4F910901A46FFF700FA109AFFF7B5
:1028C000FDF95A4C12942268FFF7F8F9584C226827
:1028D000FFF770FC04AC11942060564C2088FFF781
:1028E00033FA0346544C2088FFF72EFA1A46FFF7B6
:1028F000E5F98046514C2088FFF726FA03460FFA87
:1029000089F0FFF7BBF910901A46FFF7D7F9109A34
:10291000FFF7D4F9129C2268FFF7D0F94246FFF77F
:1029200049FC119C241D2060454C2088FFF70CFABF
:1029300003460FFA89F0FFF7A1F910901A46FFF746
:10294000BDF9109AFFF7BAF9129C2268FFF7B6F9A1
:102950003C4C2268FFF72EFC119D05F20804206014
:1029600007AC224629463848FFF734FBBDF904007E
:10297000FFF784F9354AFFF7A1F9354AFFF71AFC4A
:10298000FFF788FA40B20A9C207007AC1094083414
:10299000246823460298FFF7D7F91A46FFF70AFC86
:1029A0000D90109C241D20680D9AFEF799FE109C36
:1029B0002268FFF7FFFB274AFEF792FEFFF7E6FAD1
:1029C00080B20B9C20800B9C2488A0B2FFF7BCF93E
:1029D000214AFEF785FE21490046FFF77DFA0246AF
:1029E0004FF07E50FEF7FAFD81460A9C94F90040B4
:1029F00060B2FFF743F91A4AFFF7DCFB194AFEF70A
:102A00006FFE4A46FFF75AF9FFF744FA00B20C9CF2
:102A100020809DF80C00DDF800E013B0704700BF87
:102A2000AF000020EC000020F00000200C0100208E
:102A30000401002010010020F6000020F200002018
:102A4000F400002008010020F800002000002F3BC7
:102A5000000034C20000C842717D7D4408C9423E76
:102A600033938843F4FDD43B81B01548006840F0AF
:102A700001011348016013491348016010480168BF
:102A8000124801400E4801600D4801686FF4802033
:102A900001400B4801600C4801686FF4FE000140E2
:102AA00009480160064801686FF0A05001400448E1
:102AB00001604FF000010648016001B0704700BF9F
:102AC000001002400000FFF004100240FFFFF6FE7D
:102AD0002C10024081B04FF000094FF0000CBDEB0C
:102AE0000A0F04DCBDEB0B0F01DBD446EA464BF8C2
:102AF000049BBBEB0A0FFAD1BCEB0A0F05DDE246E3
:102B0000D9F800B00BF1040BF1E701B07047FFFFFB
:102B100081B0CDF800E046F62500FFF72DFE2849EC
:102B20000870284B284A2949FFF794FE2449087069
:102B3000002841D1254890F900002549FFF772FD92
:102B400024480121FFF7A8FD01212148FFF7A4FD3A
:102B5000FFF720FD1C4800881D49FFF73BFD1E487C
:102B60000121FFF799FD01211948FFF795FD1B4849
:102B70000221FFF791FD1348B0F900001449FFF757
:102B8000C3FD17480121FFF787FD01211048FFF71A
:102B900083FD14480221FFF77FFD13480221FFF750
:102BA0007BFD43F6FF57C0F249077F1EFDD100BFF2
:102BB00000BF00BF00BF00BFDDF800E001B07047FC
:102BC0007E000020AC000020AA0000207F00002032
:102BD0008C0000203F0000205100002060000020F9
:102BE0006B0000207A0000207D000020FFFFFFFF27
:102BF00081B0CDF800E00E4801460020FFF794FCBC
:102C000042F280512020FFF701FE0A480221FFF71F
:102C100043FD44F67F77C0F212077F1EFDD100BF4F
:102C200000BF00BF00BF00BFDDF800E001B070478B
:102C30001C0D00000000002081B0CDF800E06322F0
:102C400013491448FFF758FC48F67F57C0F25B075A
:102C50007F1EFDD100BF00BF00BF00BF00BFFFF758
:102C60007BFC48F67F57C0F25B077F1EFDD100BF9B
:102C700000BF00BF00BF00BF07480221FFF70CFDE7
:102C800006480221FFF708FDDDF800E001B07047BB
:102C90002C31000064300000180000203E000020AD
:102CA00081B01CF8019B0BF8019BBBEB0A0FF8D11C
:102CB00001B0704781B002490248016001B070471D
:102CC00040190100C000002081B0FEE701B070474C
:102CD00000F00EF800F07EFAFFF7ECFF00F02CFA9F
:102CE000FFF786FFFFF7A8FFFFF712FFFCE7FEE7FD
:102CF00081B0CDF800E0464A464B474C47494BF679
:102D00008030814206D94648006840F002014448BC
:102D1000016011E045F6C050814206D94048006884
:102D200040F001013E48016006E03D4801686FF057
:102D3000070001403A480160FFF796FE39480360FA
:102D400039480460394802EA00013948016002F05C
:102D5000010040B119463648006800F00200002822
:102D600000D1F8E700E0194602F4803040B10B468C
:102D70002F48006800F40030002800D1F8E700E098
:102D80000B4602F0805068B12948006840F080513D
:102D9000274801602648006800F00050002800D154
:102DA000F8E7FFE702F0806078B12148006840F062
:102DB00080611F48016011461A461D48006800F0F6
:102DC0000060002800D1F8E701E011461A4601F042
:102DD000807070B11648006840F08071144801603E
:102DE00011461348006800F0007000B9F9E70A4680
:102DF000FFE70C48006800F00C01900000F00C00A8
:102E0000814200D0F5E7DDF800E001B0704700BF77
:102E10008100010502841D004406010040190100E3
:102E200000200240041002402C100240FFFF0F005F
:102E3000001002402A2A2A20496E697469616C696F
:102E40007A696E672E2E2E202A2A2A002A2A2041ED
:102E50006C746974756465203320636C69636B20DE
:102E6000697320696E697469616C697A6564202A86
:102E70002A000054656D7065726174757265206911
:102E800073203A2000507265737375726520697300
:102E9000203A2000206D6261725B6850615D0041E4
:102EA0006C746974756465206973203A2000206D24
:102EB0000000FFFF3800000039000000FFFFFFFFA7
:102EC0000000000000000000000000000000000002
:102ED00000000000000000000000000000000000F2
:102EE00000000000000000001808000018000000AA
:102EF00000000000000000000000000000000000D2
:102F000000000000000000000000000000000000C1
:102F10000000000000000000000000003000140865
:102F2000090000000A000000FFFFFFFF0000000092
:102F30000000000000000000000000000000000091
:102F40000000000000000000000000000000000081
:102F50000000000018080000180000000000000039
:102F60000000000000000000000000000000000061
:102F70000000000000000000000000000000000051
:102F80000000000000000000040000003500000008
:102F900036000000FFFFFFFF0000000000000000FF
:102FA0000000000000000000000000000000000021
:102FB0000000000000000000000000000000000011
:102FC00018080000180000000000000000000000C9
:102FD00000000000000000000000000000000000F1
:102FE00000000000000000000000000000000000E1
:102FF0000000000008000008160000001700000094
:10300000FFFFFFFF000000000000000000000000C4
:1030100000000000000000000000000000000000B0
:103020000000000000000000000000002808000070
:103030002808000000000000000000000000000060
:103040000000000000000000000000000000000080
:103050000000000000000000000000000000000070
:103060000200000071090000650900005909000014
:103070007D090000A10900009509000089090000F0
:103080000509000011090000410900004D09000078
:1030900035090000FFFFFFFFFFFFFFFFFFFFFFFFFE
:1030A000FFFFFFFFFFFFFFFFFFFFFFFFFFFFFFFF30
:1030B000FFFFFFFFFFFFFFFFFFFFFFFFFFFFFFFF20
:1030C000FFFFFFFF0000803F1872313FF0FD753EAB
:1030D0004758633D58951D3C82C4AE3AA8782139C3
:1030E000EF938037A092A73546561534FFE6DB2EC6
:1030F000C4FF7F3F80EFFFBE90E1A93EEC8276BE29
:1031000082AD2B3E0E3CC3BD87D1133D4178D3BB6E
:10311000000000000102030401020304060708097D
:10312000000000000000000000000000351C00004E
:10313000A91A0000850A000000B5DFF824B0DFF806
:1031400024A0DFF824C0FFF7ABFDDFF820B0DFF8E4
:1031500020A0DFF820C0FFF7A3FD00BD704700BF2F
:10316000000000207E000020342E0000800000209F
:103170008C00002020310000FFFFFFFFFFFFFFFF5A
:10318000FFFFFFFFFFFFFFFFFFFFFFFFFFFFFFFF4F
:10319000FFFFFFFFFFFFFFFFFFFFFFFFFFFFFFFF3F
:1031A000FFFFFFFFFFFFFFFFFFFFFFFFFFFFFFFF2F
:1031B000FFFFFFFFFFFFFFFFFFFFFFFFFFFFFFFF1F
:1031C000FFFFFFFFFFFFFFFFFFFFFFFFFFFFFFFF0F
:1031D000FFFFFFFF00B5DFF810B0DFF810A0FFF72A
:1031E00079FC00BD704700BF0000002014010020E2
:00000001FF
